{
  "contractName": "GameContract",
  "abi": [
    {
      "inputs": [],
      "stateMutability": "nonpayable",
      "type": "constructor"
    },
    {
      "anonymous": false,
      "inputs": [
        {
          "indexed": true,
          "internalType": "address",
          "name": "player",
          "type": "address"
        },
        {
          "indexed": false,
          "internalType": "uint256",
          "name": "amount",
          "type": "uint256"
        }
      ],
      "name": "BetPaid",
      "type": "event"
    },
    {
      "anonymous": false,
      "inputs": [
        {
          "indexed": true,
          "internalType": "address",
          "name": "winner",
          "type": "address"
        },
        {
          "indexed": false,
          "internalType": "uint256",
          "name": "amount",
          "type": "uint256"
        }
      ],
      "name": "WinnerPaid",
      "type": "event"
    },
    {
      "inputs": [],
      "name": "owner",
      "outputs": [
        {
          "internalType": "address",
          "name": "",
          "type": "address"
        }
      ],
      "stateMutability": "view",
      "type": "function",
      "constant": true
    },
    {
      "stateMutability": "payable",
      "type": "receive",
      "payable": true
    },
    {
      "inputs": [],
      "name": "payBetAmount",
      "outputs": [],
      "stateMutability": "payable",
      "type": "function",
      "payable": true
    },
    {
      "inputs": [
        {
          "internalType": "address payable",
          "name": "winner",
          "type": "address"
        }
      ],
      "name": "transferToWinner",
      "outputs": [],
      "stateMutability": "nonpayable",
      "type": "function"
    }
  ],
  "bytecode": "0x608060405234801561001057600080fd5b50336000806101000a81548173ffffffffffffffffffffffffffffffffffffffff021916908373ffffffffffffffffffffffffffffffffffffffff16021790555061069a806100606000396000f3fe6080604052600436106100385760003560e01c80633dfcc7b314610092578063526ed39b1461009c5780638da5cb5b146100c55761008d565b3661008d573373ffffffffffffffffffffffffffffffffffffffff167fe6c2be315182687ea48cdc697600fbe2ae3965d506b6e8ffcee2bcef783b1a523460405161008391906105c8565b60405180910390a2005b600080fd5b61009a6100f0565b005b3480156100a857600080fd5b506100c360048036038101906100be9190610391565b610183565b005b3480156100d157600080fd5b506100da610358565b6040516100e7919061052d565b60405180910390f35b60003411610133576040517f08c379a000000000000000000000000000000000000000000000000000000000815260040161012a906105a8565b60405180910390fd5b3373ffffffffffffffffffffffffffffffffffffffff167fe6c2be315182687ea48cdc697600fbe2ae3965d506b6e8ffcee2bcef783b1a523460405161017991906105c8565b60405180910390a2565b60008054906101000a900473ffffffffffffffffffffffffffffffffffffffff1673ffffffffffffffffffffffffffffffffffffffff163373ffffffffffffffffffffffffffffffffffffffff1614610211576040517f08c379a000000000000000000000000000000000000000000000000000000000815260040161020890610548565b60405180910390fd5b600047905060008111610259576040517f08c379a000000000000000000000000000000000000000000000000000000000815260040161025090610568565b60405180910390fd5b60008273ffffffffffffffffffffffffffffffffffffffff168260405161027f90610518565b60006040518083038185875af1925050503d80600081146102bc576040519150601f19603f3d011682016040523d82523d6000602084013e6102c1565b606091505b5050905080610305576040517f08c379a00000000000000000000000000000000000000000000000000000000081526004016102fc90610588565b60405180910390fd5b8273ffffffffffffffffffffffffffffffffffffffff167f8cbbe5cd65720098fc8ce6e99a5deb232085117dd486475b49cb11604b528f308360405161034b91906105c8565b60405180910390a2505050565b60008054906101000a900473ffffffffffffffffffffffffffffffffffffffff1681565b60008135905061038b8161064d565b92915050565b6000602082840312156103a357600080fd5b60006103b18482850161037c565b91505092915050565b6103c3816105ff565b82525050565b60006103d66025836105ee565b91507f4f6e6c7920746865206f776e65722063616e2063616c6c20746869732066756e60008301527f6374696f6e0000000000000000000000000000000000000000000000000000006020830152604082019050919050565b600061043c601f836105ee565b91507f4e6f2066756e647320617661696c61626c6520666f72207472616e73666572006000830152602082019050919050565b600061047c6019836105ee565b91507f5472616e7366657220746f2077696e6e6572206661696c6564000000000000006000830152602082019050919050565b60006104bc6000836105e3565b9150600082019050919050565b60006104d66018836105ee565b91507f596f75206d7573742073656e6420736f6d6520457468657200000000000000006000830152602082019050919050565b61051281610643565b82525050565b6000610523826104af565b9150819050919050565b600060208201905061054260008301846103ba565b92915050565b60006020820190508181036000830152610561816103c9565b9050919050565b600060208201905081810360008301526105818161042f565b9050919050565b600060208201905081810360008301526105a18161046f565b9050919050565b600060208201905081810360008301526105c1816104c9565b9050919050565b60006020820190506105dd6000830184610509565b92915050565b600081905092915050565b600082825260208201905092915050565b600061060a82610623565b9050919050565b600061061c82610623565b9050919050565b600073ffffffffffffffffffffffffffffffffffffffff82169050919050565b6000819050919050565b61065681610611565b811461066157600080fd5b5056fea2646970667358221220ed5441f96703037eacc2ad86f1a6134cfe6a2985056dd8a30364702ef0def4f764736f6c63430008000033",
  "immutableReferences": {},
  "source": "// SPDX-License-Identifier: MIT\r\n\r\npragma solidity ^0.8.0;\r\n\r\ncontract GameContract {\r\n    address public owner;\r\n\r\n    // Event emitted when a bet is paid\r\n    event BetPaid(address indexed player, uint256 amount);\r\n    // Event emitted when the winner is paid\r\n    event WinnerPaid(address indexed winner, uint256 amount);\r\n\r\n    // Modifier to restrict access to only the contract owner\r\n    modifier onlyOwner() {\r\n        require(msg.sender == owner, \"Only the owner can call this function\");\r\n        _;\r\n    }\r\n\r\n    // Constructor sets the owner of the contract\r\n    constructor() {\r\n        owner = msg.sender;\r\n    }\r\n\r\n    // Function to allow players to deposit bet amounts to the contract\r\n    function payBetAmount() external payable {\r\n        require(msg.value > 0, \"You must send some Ether\");\r\n        emit BetPaid(msg.sender, msg.value);\r\n    }\r\n\r\n    // Function for the owner to transfer the collected bet amount to the winner\r\n    function transferToWinner(address payable winner) external onlyOwner {\r\n        uint256 contractBalance = address(this).balance;\r\n        require(contractBalance > 0, \"No funds available for transfer\");\r\n        (bool success, ) = winner.call{value: contractBalance}(\"\");\r\n        require(success, \"Transfer to winner failed\");\r\n        emit WinnerPaid(winner, contractBalance);\r\n    }\r\n\r\n    // Fallback function to handle accidental transfers\r\n    receive() external payable {\r\n        emit BetPaid(msg.sender, msg.value);\r\n    }\r\n}\r\n",
  "sourcePath": "C:\\webdevelopment\\cardgame\\smartcontract\\contracts\\GameContract.sol",
  "compiler": {
    "name": "solc",
    "version": "0.8.0+commit.c7dfd78e.Emscripten.clang"
  },
  "schemaVersion": "3.4.16",
  "updatedAt": "2024-11-20T13:47:26.486Z",
  "networkType": "ethereum",
  "devdoc": {
    "kind": "dev",
    "methods": {},
    "version": 1
  },
  "userdoc": {
    "kind": "user",
    "methods": {},
    "version": 1
  }
}